:020000040000fa
:080000000001040000000000f3
:020000040000fa
:04000800cc02000026
:020000040000fa
:04000c00cc02000022
:020000040000fa
:04001000cc0200001e
:020000040000fa
:04001400cc0200001a
:020000040000fa
:04001800cc02000016
:020000040000fa
:04001c00cc02000012
:020000040000fa
:04002000cc0200000e
:020000040000fa
:04002400cc0200000a
:020000040000fa
:04002800cc02000006
:020000040000fa
:04002c00d0010000ff
:020000040000fa
:04003000cc020000fe
:020000040000fa
:04003400980200002e
:020000040000fa
:04003800340200008e
:020000040000fa
:04003c00cc020000f2
:020000040000fa
:04004000b602000004
:020000040000fa
:04004400cc020000ea
:020000040000fa
:04004800cc020000e6
:020000040000fa
:04004c00c8010000e7
:020000040000fa
:04005000cc020000de
:020000040000fa
:04005400cc020000da
:020000040000fa
:04005800cc020000d6
:020000040000fa
:04005c00cc020000d2
:020000040000fa
:04006000cc020000ce
:020000040000fa
:04006400cc020000ca
:020000040000fa
:04006800cc020000c6
:020000040000fa
:04006c00cc020000c2
:020000040000fa
:04007000cc020000be
:020000040000fa
:04007400cc020000ba
:020000040000fa
:04007800cc020000b6
:020000040000fa
:04007c00cc020000b2
:020000040000fa
:04008000cc020000ae
:020000040000fa
:04008400cc020000aa
:020000040000fa
:04008800cc020000a6
:020000040000fa
:04008c00cc020000a2
:020000040000fa
:04009000cc0200009e
:020000040000fa
:04009400cc0200009a
:020000040000fa
:04009800cc02000096
:020000040000fa
:04009c00cc02000092
:020000040000fa
:0400a000cc0200008e
:020000040000fa
:0400a400cc0200008a
:020000040000fa
:0400a800cc02000086
:020000040000fa
:0400ac00cc02000082
:020000040000fa
:0400b000cc0200007e
:020000040000fa
:0400b400cc0200007a
:020000040000fa
:0400b800cc02000076
:020000040000fa
:0400bc00cc02000072
:020000040000fa
:0400c000cc0200006e
:020000040000fa
:0400c400cc0200006a
:020000040000fa
:0400c800cc02000066
:020000040000fa
:0400cc00cc02000062
:020000040000fa
:0400d000cc0200005e
:020000040000fa
:0400d400cc0200005a
:020000040000fa
:0400d800cc02000056
:020000040000fa
:04010800cc02000025
:020000040000fa
:04010c00cc02000021
:020000040000fa
:04011000cc0200001d
:020000040000fa
:04011400cc02000019
:020000040000fa
:04011800cc02000015
:020000040000fa
:04011c00cc02000011
:020000040000fa
:04012000cc0200000d
:020000040000fa
:04012400cc02000009
:020000040000fa
:04012800cc02000005
:020000040000fa
:04012c00d0010000fe
:020000040000fa
:04013000cc020000fd
:020000040000fa
:04013400980200002d
:020000040000fa
:04013800340200008d
:020000040000fa
:04013c00cc020000f1
:020000040000fa
:04014000b602000003
:020000040000fa
:04014400cc020000e9
:020000040000fa
:04014800cc020000e5
:020000040000fa
:04014c00c8010000e6
:020000040000fa
:04015000cc020000dd
:020000040000fa
:04015400cc020000d9
:020000040000fa
:04015800cc020000d5
:020000040000fa
:04015c00cc020000d1
:020000040000fa
:04016000cc020000cd
:020000040000fa
:04016400cc020000c9
:020000040000fa
:04016800cc020000c5
:020000040000fa
:04016c00cc020000c1
:020000040000fa
:04017000cc020000bd
:020000040000fa
:04017400cc020000b9
:020000040000fa
:04017800cc020000b5
:020000040000fa
:04017c00cc020000b1
:020000040000fa
:04018000cc020000ad
:020000040000fa
:04018400cc020000a9
:020000040000fa
:04018800cc020000a5
:020000040000fa
:04018c00cc020000a1
:020000040000fa
:04019000cc0200009d
:020000040000fa
:04019400cc02000099
:020000040000fa
:04019800cc02000095
:020000040000fa
:04019c00cc02000091
:020000040000fa
:0401a000cc0200008d
:020000040000fa
:0401a400cc02000089
:020000040000fa
:0401a800cc02000085
:020000040000fa
:0401ac00cc02000081
:020000040000fa
:0401b000cc0200007d
:020000040000fa
:0401b400cc02000079
:020000040000fa
:0401b800cc02000075
:020000040000fa
:0401bc00cc02000071
:020000040000fa
:0401c000cc0200006d
:020000040000fa
:0401c400cc02000069
:020000040000fa
:0401c800cc02000065
:020000040000fa
:0401cc00cc02000061
:020000040000fa
:0401d000cc0200005d
:020000040000fa
:0401d400cc02000059
:020000040000fa
:0401d800cc02000055
:020000040000fa
:10020000cf8720000eff20000e01880000000000b4
:10021000000020000000e000020032000001200089
:100220002002880014000700dd0007000000e00045
:1002300003003a006079200001002000020037002e
:100240000000200001002000810f7000010032003a
:1002500014000700000020000000e000020032004f
:1002600000000200000000008a05020000000000fb
:100270000040da000000fe004440a90040032000d6
:100280000000e0000300320000002000a001880010
:100290004440a800000006008a1f78008b1f7800e9
:1002a0000000060091018800800478000000eb0047
:1002b0001a003700e284440032a0b4009905ba0065
:1002c000e284440032a0b4009906ba00e2844400fb
:1002d00032a0b4000006eb00476fde00fd07b2005d
:1002e000636ce10003003a00ebff07000000eb0045
:1002f0000a003700606ce10004003a00005deb008a
:100300008b05e900fdff3e00040037006168e10055
:10031000010032000086eb000b00070019c7ba008d
:100320001905ba000e04e00003003a000a00e000dc
:10033000e0ff3a0000000600fe07b2009e018800c0
:100340008a047800f5ff3700395dba008b05e900b3
:100350000c003200295dba008b05e900080032006c
:100360000c00e00003003a00e284440032a0b40034
:10037000f5ff370019ddba008b05e900faff3a00f6
:100380008904e800e184440032a0b40000000600c3
:100390000000fa008520a9000080fa000040060055
:1003a0003600f800809fbe00829fbe00849fbe0082
:1003b000869fbe000000fa00004080000000e000c0
:1003c00005003a00000a800020408800100020004c
:1003d000004088001c003700000a80003040880080
:1003e0000028ef003140800020408000808f5000c6
:1003f0000500340031408000204080000080500023
:10040000a040880005003700204080008080ea007e
:100410003040800000804000a0408800a040800064
:10042000cf80de00a5000700a29d2c0003e623007c
:10043000e300070002002000030024005900070029
:1004400060408800714088008420a9000080fa0084
:100450004f03be004f02be004f01be004f00be0062
:100460003600f900004006003600f800809fbe000c
:10047000829fbe00849fbe00869fbe000000fa00df
:10048000104080000000e00005003a00200a8000d3
:100490004040880010002000104088001c003700f9
:1004a000200a8000504088000228ef005140800060
:1004b00040408000808f5000050034005140800093
:1004c0004040800000805000b040880005003700a8
:1004d000404080008080ea00504080000080400062
:1004e000b0408800b0408000cf80de00730007007d
:1004f000a29d2c0003e62300b100070002002000ab
:1005000003002400270007008040880091408800f5
:100510008480a9000080fa004f03be004f02be0095
:100520004f01be004f00be003600f900004006003b
:10053000801f78000000fa00d662a800d642a8000a
:100540000021ef000000000000088000e20f5000d2
:10055000fdff3600d662a900d642a9008460a9003a
:100560000080fa004f007800004006003400f800d8
:10057000881f780008002000a80188004f04780038
:100580000000fa000621ef0084c0a9000080fa00f4
:100590003400f900004006000040da000000fe00d0
:1005a00000000500889fbe008a9fbe008c1f780057
:1005b0006b0007007200330003866c006450e1009a
:1005c0002e0032006420e100330032006150e1006f
:1005d0002f0032006120e100310032008585550096
:1005e000eb07b000090020000804200005003700d8
:1005f0000804440089844c000a00310006034300cb
:1006000087834b000001530081815b00f8ff3300ba
:100610000203be000800a0000804440089844c00c6
:10062000f6ff3900c639dd00830173000100320096
:10063000130020008904d1000884d3000998a30086
:10064000050032000800a7000300a0008904d100c3
:100650000884d3008b05e8008904d1000884d30006
:100660000001eb000281d2001700070001f0a10099
:100670000cf0a70001f0a0004a0037006420e10060
:100680004c0032000801be000200be00f7ff370038
:100690006120e100470032006000b800f3ff37003e
:1006a0000000200001f82700f0ff370014002000b0
:1006b00077003700f4ff2f00750037004f89de0008
:1006c000820178008d003700810020006180550094
:1006d0000b003d000b00200061fe2f000100e10037
:1006e0001d00340082817100610164008904d10021
:1006f0000884d3000000e800faff3a0071002000ef
:100700006100640003007000020060000900320014
:1007100061044400e0844c000988a5000500320013
:100720008b05e8006808e10002003a008904d10066
:100730000884d300f20f20000258e10005003d00bc
:10074000c75ddd00f907b2008980750008007800f8
:10075000000006000bf827008b0078000000050061
:100760000004be00a40007000003be000405be0094
:100770000200be00a0000700844f750000000600c4
:100780000200be006450e100050036006420e10074
:10079000020036000968a30001003a000800be000c
:1007a0000160a0004f0678004f05be004f04be0058
:1007b00000000600f0ff2f00f1ff2700f9ff3700cf
:1007c000889fbe008a9fbe008c1f7800e4ff070050
:1007d000ebff330003866c006450e100240032001c
:1007e0006420e100270032006150e1002200320065
:1007f0006120e100210032008b854200eb07b1004f
:100800000134b800003ab8000804420089844a0064
:10081000013ab8000030b8008880400009014a0061
:1008200004003300000040008180480002014900bc
:100830008b05e900c909dd00830170000100320069
:1008400013002000c814de004814dd004709de0054
:100850001200b200c808de00088470009aff07008a
:1008600001f0a1000cf0a70001f0a000cdff3700bf
:100870006120e100cfff32000801be000200be008f
:10088000f7ff37006150e100fcff3a00c9ff370075
:10089000889fbe008a9fbe00841f7800b0ff0700bb
:1008a0004f00780011003300f0ff2f00838f6c00a1
:1008b00006003b00040565000a00a7000800370099
:1008c00009f0a6001000200008003700820f540035
:1008d000838f5c00030039001000200001003e00ff
:1008e0000000200009f0a7000000ea004f05be004c
:1008f0004f04be000000e00000000600881f7800e2
:10090000030478000300e00007003d0060001000d1
:10091000e080180060011900e081190002003b002e
:1009200001f02d00030037000400070008f0a700c5
:1009300001f0a0004f04780000000600889fbe0070
:100940008a9fbe0000827000040271000482710060
:10095000260032000004be000200be006011b80094
:100960006b092000950220000182cf000a003900a7
:100970000541b1000082cf00070039000541b100f8
:100980000982cf00040039000541b1000882cf0080
:10099000010039000541b100054252001200320049
:1009a0000a003b0082817100610164008100d10076
:1009b0000080d3008984d3000884d3008b05e8002d
:1009c0000442e800f7ff3a0007003700080444003b
:1009d00089844c0000004800818048008b05e900b4
:1009e0000442e900f9ff3a0037ff07004f05be0057
:1009f0004f04be0000000600c70ade00f107b20087
:100a0000f50fb20008003200e1cf420002003200d0
:100a10000170a00024000500810f70000100320069
:100a20000408050044000500810f700002003a0030
:100a3000140005008502e9000000400081c0480064
:0c0a4000fcff3b000170a000240005003a
:020000040000fa
:100a4c00536b000072650000636500006d200000b0
:100a5c0070720000656d000061200000646500008c
:100a6c00736e00006f2100000a0d000000490000a9
:100a7c00646500006d20000070720000617600005b
:100a8c006f2100000a0d0000005300006b72000083
:100a9c0065630000656d0000206c00006576000049
:080aac006f21000000000000b2
:020000040000fa
:100ab4000000fa00e202a800cb82a900cb22a90020
:100ac400cb42a90050168000007029009114200028
:100ad40007010700e202a800cb82a900cb22a900eb
:100ae400cb42a8005016800000d82800b105200091
:100af400ff000700e202a900cb82a900cb22a900d3
:100b0400cb42a900501680000080fa0000000600c5
:100b14000000fa00881f780069000700a0000700a1
:100b24007d0007008a0007006e000700a60007008a
:100b340005e1a800804080009140800018c0b30007
:100b44000200200003082400d7fe07000000e00094
:100b5400010035000044eb000804e00019003200f5
:100b6400604080007140800018c0b3000200200083
:100b740083132400cefe07000000e00001003c00c7
:100b84000044eb000804e0000e003200e202a8007a
:100b9400cb82a900cb22a900cb42a800501680002a
:100ba400003e290041002000d1000700e202a80015
:100bb400cb82a900cb22a800cb42a900501680000a
:100bc4003c003700804080009140800018c0b30092
:100bd40002002000030c2400b5fe07000000e00022
:100be40001003c000044eb000804e0001b0032005c
:100bf400604080007140800018c0b30002002000f3
:100c040083132400aafe07000000e00001003c005a
:100c14000044eb000804e00010003200e202a800e7
:100c2400cb82a900cb22a900cb42a8005016800099
:100c3400003e290041002000ad000700e202a900a7
:100c4400cb82a800cb22a900cb42a800501680007a
:100c5400605228008e0007001600370060408000b4
:100c64007140800018c0b3000200200083132400e8
:100c74008ffe07000000e00001003c000044eb0090
:100c84000804e00008003200d05328008000070068
:100c9400e202a800cb82a900cb22a900cb42a80083
:100ca4005016800003003700b05428007800070075
:100cb4007fff070080812000750007009dff37003b
:100cc4000000fa00d202a900d222a900c722a9007a
:100cd400c742a900de02a900c782a9000080fa0069
:100ce400000006000000fa0000042000a0108800a4
:100cf4000d42a9008d20a80071108000c0ff2f00b4
:100d040000806000701088000de2a8000f42a80067
:100d14000080fa00000006000000fa000021ef0045
:100d24000421a90021088000f0fc2f00008060004d
:100d34000050a00020088800f04922001008880014
:100d44008460a9008c60a8000080fa0000000600fe
:100d54000000fa0070382100600888001021a90002
:100d640081088000f0fc2f0000806000800888006b
:100d74000621ef008a61a900510c800080ff2f003a
:100d8400008060006000b300500c8800007d2000eb
:100d9400300c880011e1a8000080fa000000060071
:100da4000000fa001221a90091088000f0fc2f0035
:100db400008060000050a0009008880013e1a800a3
:100dc4000080fa00000006000000fa00d262a900c8
:100dd400d242a900d662a900d642a900d302a80033
:100de400d322a80042e1a900110a800080ff2f004d
:100df400008060000000a000100a8800a1048000a8
:100e0400f0f82f00008060000040a000a0048800db
:100e14008420a9008c20a80046e1a900310a8000a2
:100e240080ff2f00008060000000a000300a8800ce
:100e34008480a9008c80a8000080fa0000000600cd
:100e44000200fa00000f780000000000711080001a
:100e540000102000008060000000e000fbff320072
:100e64006010800066006000e60f500003003a0046
:100e74009e0078008110880003003700f00f2000e6
:100e84001e006000801088000080fa000000060048
:100e94000000fa00881f7800000478000e00370074
:100ea400184078000000fb00e5ff070018407800b8
:100eb400ed4f500002003a00a0002000e0ff0700c0
:100ec40018407800ea4f500002003a00d000200099
:100ed400dbff07000804e800184078000004e00085
:100ee400efff3a004f0478000080fa00000006008b
:020000040000fa
:100ef400f03fb1000180b10006003500ee030900a7
:100f040000000000403fb1000180b100fbff3d0044
:100f14001000b000203fb00002003500008009003e
:080f24000000000000000600bf
:020000040000fa
:100f2c00000800007c000000000000000000000031
:020000040000fa
:0200000401f009
:04000000e5bf000058
:020000040000fa
:0200000401f009
:04000400ff7f00007a
:020000040000fa
:0200000401f009
:04000800ffff0000f6
:020000040000fa
:0200000401f009
:04001400ffffff00eb
:020000040000fa
:0200000401f009
:04001800ffff0000e6
:00000001FF
